:100EBC004F4E0D0A004F46460D0A004C314F4E0D59
:100ECC000A004C314F46460D0A004C324F4E0D0A6B
:100EDC00004C324F46460D0A0046414E4F4E0D0A0D
:100EEC000046414E4F46460D0A00706F7765725FA3
:100EFC006F66660D0A0054454D503A00FF0EBCFF5C
:100F0C000EC1FF0EC7FF0ECEFF0ED6FF0EDDFF0E7D
:070F1C00E5FF0EEDFF0EF6EC
:10107A00013200013400181A0000000000010001CA
:10108A00000001010100000100010101000101014C
:100A8100121119120C011211037BFF7A0F7902E482
:100A9100FDFF120CA2120E488E3C8F3D120DC612A4
:100AA10010007B007A007935E4FD7F28120CA21238
:100AB1000E488E3C8F3DE53D653F7004E53C653E4B
:100AC1006013120DC61210007B007A007935E4FD27
:100AD1007F28120CA2E53260D6E4F53278107C0052
:100AE100FD900F0893FB740193FA740293F9120AB3
:100AF10038EF700875A0FF75340161F078107C0043
:100B01007D00900F0BE493FB740193FA740293F947
:100B1100120A38EF7006F5A0F53461F078107C0008
:100B21007D00900F0EE493FB740193FA740293F924
:100B3100120A38EF7009E534604775A05561F07805
:100B4100107C007D00900F11E493FB740193FA7403
:100B51000293F9120A38EF700563A05561F078101D
:100B61007C007D00900F14E493FB740193FA7402EE
:100B710093F9120A38EF701CE534600575A0AA805C
:100B81006E900F20E493FB740193FA740293F912AF
:100B91001006805B78107C007D00900F17E493FBBA
:100BA100740193FA740293F9120A38EF700563A085
:100BB100AA803C78107C007D00900F1AE493FB74AE
:100BC1000193FA740293F9120A38EF70047F0180DD
:100BD1001B78107C007D00900F1DE493FB74019342
:100BE100FA740293F9120A38EF7004FF120F63E4EA
:100BF100F533FE7F0AFDFB7A007910120A5541B0E8
:10111900759850758920758BFD758DFDD28ED2AC71
:03112900D2AF2220
:03002300020FCAFF
:100FCA00C0E0C0D075D008309819C2987410253383
:100FDA00F8A69974102533F8E6B40A05753201802B
:0D0FEA00020533309902C299D0D0D0E03218
:0C112C00C2AC8F993099FDC299D2AC2260
:061000007B007A00793547
:101006008B408A418942AB40AA41A9421207DBFFC5
:1010160012112CAB400542E542AA4170020541146B
:07102600F91207DB70E02264
:100F2300AB07AA067C007D08120876AF05EF75F0C3
:100F330003A4241AF8E624FF9280EF75F003A42497
:100F43001BF8E624FF9281AE02AF037C007D0812FA
:100F53000876ED75F003A4241CF8E624FF928222A0
:09114300007F027EC7DEFEDFFC26
:01114C002280
:100F63007540017541F4EF602B900000AF82AE83B2
:100F7300120F23D3E5419400E5409400400D121174
:100F830043E541154170EC154080E8A3E582640810
:040F9300458370D84A
:010F97002237
:060DC600853C3E853D3F27
:100DCC00E54770047B2B80027B2DAE48AF497C033A
:100DDC007DE8120821EF2430F536AE48AF497C038C
:100DEC007DE81208217E007F64CFCDCFCECCCE1211
:100DFC000821EF2430F537AE48AF497C007D6412F2
:100E0C0008217E007F0ACFCDCFCECCCE120821EFA9
:100E1C002430F53875392EAE48AF497C007D0A1266
:100E2C000821ED2430F53AE536B4300F7535208BBA
:0B0E3C0036E537B430057536208B37E3
:010E47002288
:1000260000000000000000000000000000000000CA
:10003600000000F80000000000000033300000005F
:1000460000100C06100C0600000000000000000066
:1000560040C07840C0784000043F04043F040400D8
:10006600007088FC08300000001820FF211E0000E8
:10007600F008F000E018000000211C031E211E00FD
:1000860000F00888700000001E2123241927211083
:1000960010160E0000000000000000000000000026
:1000A600000000E0180402000000000718204000CD
:1000B60000020418E00000000040201807000000BD
:1000C600404080F0804040000202010F0102020021
:1000D600000000F0000000000101011F0101010005
:1000E600000000000000000080B07000000000006A
:1000F60000000000000000000001010101010101F3
:100106000000000000000000003030000000000089
:10011600000000008060180400601806010000005E
:1001260000E010080810E000000F102020100F005B
:10013600001010F8000000000020203F20200000E2
:10014600007008080888700000302824222130003A
:1001560000300888884830000018202020110E0042
:100166000000C02010F8000000070424243F2400EB
:1001760000F80888880808000019212020110E00C0
:1001860000E0108888180000000F112020110E00D2
:1001960000380808C83808000000003F00000000CA
:1001A6000070880808887000001C222121221C008B
:1001B60000E010080810E0000000312222110F00B4
:1001C600000000C0C0000000000000303000000049
:1001D60000000080000000000000806000000000B9
:1001E60000008040201008000001020408102000D2
:1001F600404040404040400004040404040404001D
:1002060000081020408000000020100804020100B1
:10021600007048080808F0000000003036010000B1
:10022600C030C828E810E0000718272423140B0064
:100236000000C038E0000000203C230202273820DE
:1002460008F8888888700000203F202020110E00C2
:10025600C0300808080838000718202020100800B9
:1002660008F808080810E000203F202020100F00A2
:1002760008F88888E8081000203F2020232018006E
:1002860008F88888E8081000203F200003000000D6
:10029600C03008080838000007182020221E020077
:1002A60008F808000008F808203F210101213F2036
:1002B600000808F8080800000020203F2020000061
:1002C60000000808F8080800C08080807F00000051
:1002D60008F888C028180800203F2001263820008A
:1002E60008F8080000000000203F202020203000F1
:1002F60008F8F800F8F80800203F003F003F20000B
:1003060008F830C00008F808203F200007183F0012
:10031600E01008080810E0000F10202020100F0041
:1003260008F808080808F000203F21010101000034
:10033600E01008080810E0000F18242438504F0079
:1003460008F8888888887000203F2000030C302039
:1003560000708808080838000038202121221C0077
:10036600180808F8080818000000203F20000000C0
:1003760008F808000008F808001F202020201F00A9
:100386000878880000C83808000007380E01000009
:10039600F80800F80008F800033C0700073C0300D3
:1003A600081868808068180820302C03032C302039
:1003B6000838C800C83808000000203F20000000A8
:1003C60010080808C8380800203826212020180000
:1003D600000000FE020202000000007F40404000D4
:1003E600000C30C000000000000000010638C0000C
:1003F60000020202FE000000004040407F000000B4
:1004060000000402020204000000000000000000D8
:1004160000000000000000008080808080808080D6
:1004260000020204000000000000000000000000BE
:1004360000008080808000000019242222223F20B4
:1004460008F8008080000000003F112020110E00F7
:100456000000008080800000000E11202020110086
:10046600000000808088F800000E112020103F2038
:100476000000808080800000001F222222221300BC
:10048600008080F0888888180020203F2020000007
:100496000000808080808000006B949494936000BC
:1004A60008F8008080800000203F210000203F20C7
:1004B60000809898000000000020203F20200000C7
:1004C600000000809898000000C08080807F0000B7
:1004D60008F8000080808000203F24022D30200094
:1004E600000808F8000000000020203F202000003F
:1004F6008080808080808000203F20003F20003F59
:100506008080008080800000203F210000203F2066
:100516000000808080800000001F202020201F0017
:10052600808000808000000080FFA12020110E0046
:100536000000008080808000000E112020A0FF8037
:10054600808080008080800020203F2120000100E4
:100556000000808080808000003324242424190039
:10056600008080E0808000000000001F2020000046
:100576008080000000808000001F202020103F2087
:10058600808080000080808000010E300806010017
:1005960080800080008080800F300C030C300F00BC
:1005A60000808000808080000020312E0E312000E7
:1005B600808080000080808080818E701806010017
:1005C60000808080808080000021302C2221300035
:1005D60000000000807C020200000000003F404056
:1005E60000000000FF00000000000000FF00000007
:1005F6000002027C800000000040403F0000000036
:1006060000060101020204040000000000000000D0
:101055007E08C291D290C293AD061EED6014EF30AA
:10106500E704D2928002C292D293C293EF25E0FFA9
:0410750080E6D291AE
:011079002254
:0D0F980024B0FF120FA57F01120FA57F10DE
:100FA5007E08C291C290C293AD061EED6014EF306B
:100FB500E704D2928002C292D293C293EF25E0FF5A
:040FC50080E6D2915F
:010FC9002205
:10109B00AC07ED24B0FF120FA5EC54F0C4540F4471
:0C10AB0010FF120FA5EC540FFF020FA560
:0210EB00AC0750
:1010ED00E4FBEB120F98E4FAAF041210550ABA8024
:0510FD00F70BBB08ED3C
:0111020022CA
:10110300E4FCEC120F98E4FBE4FF1210550BBB80D8
:05111300F70CBC08ED23
:0111180022B4
:1010B700EF4E60157D377C05ED1DAA0470011C4AB3
:0910C70070F6EF1F70EA1E80E7CD
:0110D00022FD
:100C0100D293D291C2947F327E001210B7D2947FD8
:100C1100AE120FA5E4FF120FA07F40120FA57F8136
:100C2100120FA57FCF120FA57FA1120FA57FC812AA
:100C31000FA57FA6120FA57FA8120FA57F3F120F48
:100C4100A57FD3120FA5E4FF120FA57FD5120FA523
:100C51007F80120FA57FD9120FA57FF1120FA57FFB
:100C6100DA120FA57F12120FA57FDB120FA57F40AD
:100C7100120FA57F20120FA57F02120FA57F8D12E3
:100C81000FA57F14120FA57FA4120FA57FA6120F27
:100C9100A57FAF120FA5E4FF1210EBE4FDFF0210D8
:010CA1009BB7
:0A0CA2008F408D418B428A43894444
:100CAC00E4F545FCF546AB42AA43A944854682755A
:100CBC0083001207F4607624E0F545E540D3947880
:100CCC004005E4F5400541AD41AF4012109BE4FCFA
:100CDC0075F010E545A42CF582E435F0F583E5823A
:100CEC002426F582E5833400F583E493FF12105536
:100CFC000CBC08DCE54104FDAF4012109BE4FC7514
:100D0C00F010E545A42CF582E435F0F583E582245A
:100D1C002EF582E5833400F583E493FF1210550C15
:0D0D2C00BC08DC74082540F540054681B286
:010D39002297
:0B113800EF1FAC0670011E4C70F62289
:10102D00E4FDD2E87F08FE121138C2E87F507E0041
:10103D00121138D2E87F0E7E00121138A2E8E43387
:08104D00FD7F147E0002113842
:10000300E4FB7D08C2E8EBC313FBD2E830E803430B
:0D00130003807F047E00121138DDE9AF0389
:0100200022BD
:0210D100AD0769
:1010D3007B08C2E8ED1392E87F057E00121138D237
:0710E300E8EDC313FDDBEB98
:0110EA0022E3
:100E4800E4FAFF12102D7FCC1210D17F441210D17A
:100E580012102D7FCC1210D17FBE1210D1120003B8
:100E6800AA071200037548008F49E549754900F53E
:100E780048AF02EF4249C3E54994FFE548940F5053
:100E880005E4F5478014E549F4FFE548F4FEEF244E
:100E980001F549E43EF548754701AC48AD49E4120F
:100EA8000721E4FBFA7920783F12061612075A8EBA
:030EB800488F4917
:010EBB002214
:10061600EC4D6011E8497017ED33EC3304600DE4DE
:10062600FCFFFEFD22E933E8330470F80207C61228
:10063600079158046009E4CC248150062850090229
:1006460007D02840030207CDC0E0EB4A7044B980CA
:1006560006D0E0FB0207BCEF4E701CBD8008EBFF26
:10066600EAFEE9FD80EBE98DF0A4FEE5F00206FF67
:10067600E9CDF9EAFEEBFFEF89F0A4FCE5F0CE89BF
:10068600F0A42EFFE435F0CD89F0A42DFEE435F07C
:100696008067EF4E7005BD80D780C3EF8BF0A4ACAA
:1006A600F0EE8BF0A42CFCE435F0F8EF8AF0A42CE5
:1006B600E5F038FCE433CB8DF0A42CFCE5F03BF8F8
:1006C600EE8AF0A42CFCE5F038F8E433CF89F0A4E8
:1006D6002CFCE5F038CF3400CE89F0A42FFFE5F0EE
:1006E6003EFEE433C98DF0A42EFEE5F039CD8AF046
:1006F600A42FFFE5F03EFEE43DFD33D0E0FB5007BE
:100706000BBB000F0207D0EC2CFCEF33FFEE33FEE1
:06071600ED33FD0207A80F
:10071C0075F020800E75F010800575F0087D007E58
:10072C00007F003392D530D5031208ACEC33401067
:10073C00EF33FFEE33FEED33FDEC33FCD5F0ED2261
:0E074C00E5F0247EA2D513CC92E7CDCEFF229D
:10075A00EDD2E7CD33EC3392D524814006E4FFFE97
:10076A00FDFC22FCE4CFCECDCC24E0501174FF80F6
:10077A00EDC3CC13CCCD13CDCE13CECF13CF047093
:07078A00F030D5DE0208ACDF
:10079100E9D2E7C933E833F892D5EDD2E7CD33ECAE
:0707A10033FC5002B2D52227
:1007A800EC30E7100FBF000C0EBE00080DBD0004B2
:1007B8000BEB6014A2D5EB13FCED92E7FD2274FF5E
:1007C800FCFDFEFF22E480F8A2D574FF13FC7D80B7
:0307D800E480EFCB
:03000000020D3AB4
:0C0D3A00787FE4F6D8FD758149020D8138
:1007DB00BB010689828A83E0225002E722BBFE021C
:0907EB00E32289828A83E493224F
:1007F400BB010CE58229F582E5833AF583E02250BA
:1008040006E92582F8E622BBFE06E92582F8E22203
:0D081400E58229F582E5833AF583E493221D
:10082100BC000BBE0029EF8DF084FFADF022E4CCBB
:10083100F875F008EF2FFFEE33FEEC33FCEE9DEC84
:10084100984005FCEE9DFE0FD5F0E9E4CEFD22EDCA
:10085100F8F5F0EE8420D21CFEADF075F008EF2F14
:10086100FFED33FD4007985006D5F0F222C398FD05
:050871000FD5F0EA22A2
:10087600C2D5EC30E709B2D5E4C39DFDE49CFCEE9D
:1008860030E715B2D5E4C39FFFE49EFE120821C3EC
:10089600E49DFDE49CFC800312082130D507C3E4E7
:0608A6009FFFE49EFE220C
:0E08AC00C3E49FFFE49EFEE49DFDE49CFC225D
:1008BA00E3F5F009E208B5F06D606B80F3E3F5F05B
:1008CA0009E608B5F060605E80F387F009E608B5CE
:1008DA00F054605280F487F009E208B5F0486046A7
:1008EA0080F488828C8387F009E0A3B5F0386036FB
:1008FA0080F488828C8387F009E493A3B5F027609B
:10090A002580F388828C83E3F5F009E0A3B5F0161D
:10091A00601480F388828C83E3F5F009E493A3B52D
:10092A00F004600280F20209E5808580E7808E800B
:10093A00D2803C8015806C807E809B80B5808B80C5
:10094A00A1804F8070803A0209F189828A83ECFA89
:10095A00E493F5F0A3C8C582C8CCC583CCE493A3BD
:10096A00C8C582C8CCC583CCB5F070606E80E189F9
:10097A00828A83E493F5F0A3E208B5F05E605C80B6
:10098A00F289828A83E0F5F0A3E608B5F04D604B60
:10099A0080F389828A83E0F5F0A3E208B5F03C602F
:1009AA003A80F389828A83E493F5F0A3E608B5F0E6
:1009BA002A602880F2805389828A83ECFAE493F5CC
:1009CA00F0A3C8C582C8CCC583CCE0A3C8C582C879
:1009DA00CCC583CCB5F004600280E27FFFB5F0029B
:1009EA000F2240027F012289828A83ECFAE0F5F025
:1009FA00A3C8C582C8CCC583CCE0A3C8C582C8CC6D
:100A0A00C583CCB5F0D560D380E389828A83ECFABA
:100A1A00E0F5F0A3C8C582C8CCC583CCE493A3C8CB
:100A2A00C582C8CCC583CCB5F0B160AF80E288F08E
:100A3A00ED2402B4040050A3F582EB2402B40400AE
:0B0A4A00509923234582239009337349
:100A5500EF4E6012EF60010EEDBB010B89828A83B8
:100A6500F0A3DFFCDEFA2289F05007F709DFFCA9C5
:0C0A7500F022BBFEFCF309DFFCA9F0221C
:100D4600020A81E493A3F8E493A34003F68001F238
:100D560008DFF48029E493A3F85407240CC8C333AE
:100D6600C4540F4420C8834004F456800146F6DF7D
:100D7600E4800B010204081020408090107AE47E83
:100D8600019360BCA3FF543F30E509541FFEE49372
:100D9600A360010ECF54C025E060A840B8E493A339
:100DA600FAE493A3F8E493A3C8C582C8CAC583CA64
:100DB600F0A3C8C582C8CAC583CADFE9DEE780BE1C
:01109A000055
:00000001FF
